{
  "_format": "hh-sol-artifact-1",
  "contractName": "CharityManager",
  "sourceName": "contracts/CharityManager.sol",
  "abi": [
    {
      "inputs": [],
      "stateMutability": "nonpayable",
      "type": "constructor"
    },
    {
      "inputs": [
        {
          "internalType": "address",
          "name": "owner",
          "type": "address"
        }
      ],
      "name": "OwnableInvalidOwner",
      "type": "error"
    },
    {
      "inputs": [
        {
          "internalType": "address",
          "name": "account",
          "type": "address"
        }
      ],
      "name": "OwnableUnauthorizedAccount",
      "type": "error"
    },
    {
      "anonymous": false,
      "inputs": [
        {
          "indexed": true,
          "internalType": "uint256",
          "name": "charityId",
          "type": "uint256"
        },
        {
          "indexed": false,
          "internalType": "string",
          "name": "name",
          "type": "string"
        },
        {
          "indexed": false,
          "internalType": "uint256",
          "name": "goal",
          "type": "uint256"
        }
      ],
      "name": "CharityCreated",
      "type": "event"
    },
    {
      "anonymous": false,
      "inputs": [
        {
          "indexed": true,
          "internalType": "uint256",
          "name": "charityId",
          "type": "uint256"
        },
        {
          "indexed": false,
          "internalType": "address",
          "name": "donor",
          "type": "address"
        },
        {
          "indexed": false,
          "internalType": "uint256",
          "name": "amount",
          "type": "uint256"
        }
      ],
      "name": "DonationReceived",
      "type": "event"
    },
    {
      "anonymous": false,
      "inputs": [
        {
          "indexed": true,
          "internalType": "uint256",
          "name": "charityId",
          "type": "uint256"
        },
        {
          "indexed": false,
          "internalType": "uint256",
          "name": "amount",
          "type": "uint256"
        }
      ],
      "name": "FundsReleased",
      "type": "event"
    },
    {
      "anonymous": false,
      "inputs": [
        {
          "indexed": true,
          "internalType": "address",
          "name": "previousOwner",
          "type": "address"
        },
        {
          "indexed": true,
          "internalType": "address",
          "name": "newOwner",
          "type": "address"
        }
      ],
      "name": "OwnershipTransferred",
      "type": "event"
    },
    {
      "inputs": [
        {
          "internalType": "uint256",
          "name": "",
          "type": "uint256"
        }
      ],
      "name": "charities",
      "outputs": [
        {
          "internalType": "string",
          "name": "name",
          "type": "string"
        },
        {
          "internalType": "uint256",
          "name": "goal",
          "type": "uint256"
        },
        {
          "internalType": "uint256",
          "name": "fundsRaised",
          "type": "uint256"
        },
        {
          "internalType": "bool",
          "name": "fundsReleased",
          "type": "bool"
        }
      ],
      "stateMutability": "view",
      "type": "function"
    },
    {
      "inputs": [],
      "name": "charityCount",
      "outputs": [
        {
          "internalType": "uint256",
          "name": "",
          "type": "uint256"
        }
      ],
      "stateMutability": "view",
      "type": "function"
    },
    {
      "inputs": [
        {
          "internalType": "string",
          "name": "_name",
          "type": "string"
        },
        {
          "internalType": "uint256",
          "name": "_goal",
          "type": "uint256"
        }
      ],
      "name": "createCharity",
      "outputs": [],
      "stateMutability": "nonpayable",
      "type": "function"
    },
    {
      "inputs": [
        {
          "internalType": "uint256",
          "name": "_charityId",
          "type": "uint256"
        }
      ],
      "name": "donate",
      "outputs": [],
      "stateMutability": "payable",
      "type": "function"
    },
    {
      "inputs": [],
      "name": "owner",
      "outputs": [
        {
          "internalType": "address",
          "name": "",
          "type": "address"
        }
      ],
      "stateMutability": "view",
      "type": "function"
    },
    {
      "inputs": [
        {
          "internalType": "uint256",
          "name": "_charityId",
          "type": "uint256"
        }
      ],
      "name": "releaseFunds",
      "outputs": [],
      "stateMutability": "nonpayable",
      "type": "function"
    },
    {
      "inputs": [],
      "name": "renounceOwnership",
      "outputs": [],
      "stateMutability": "nonpayable",
      "type": "function"
    },
    {
      "inputs": [
        {
          "internalType": "address",
          "name": "newOwner",
          "type": "address"
        }
      ],
      "name": "transferOwnership",
      "outputs": [],
      "stateMutability": "nonpayable",
      "type": "function"
    }
  ],
  "bytecode": "0x608060405234801561001057600080fd5b5033600073ffffffffffffffffffffffffffffffffffffffff168173ffffffffffffffffffffffffffffffffffffffff16036100845760006040517f1e4fbdf700000000000000000000000000000000000000000000000000000000815260040161007b919061019e565b60405180910390fd5b6100938161009960201b60201c565b506101b9565b60008060009054906101000a900473ffffffffffffffffffffffffffffffffffffffff169050816000806101000a81548173ffffffffffffffffffffffffffffffffffffffff021916908373ffffffffffffffffffffffffffffffffffffffff1602179055508173ffffffffffffffffffffffffffffffffffffffff168173ffffffffffffffffffffffffffffffffffffffff167f8be0079c531659141344cd1fd0a4f28419497f9722a3daafe3b4186f6b6457e060405160405180910390a35050565b600073ffffffffffffffffffffffffffffffffffffffff82169050919050565b60006101888261015d565b9050919050565b6101988161017d565b82525050565b60006020820190506101b3600083018461018f565b92915050565b6110e5806101c86000396000f3fe60806040526004361061007b5760003560e01c8063913294931161004e5780639132949314610114578063f14faf6f1461013f578063f2fde38b1461015b578063fb709d2e146101845761007b565b806315ac6e2d146100805780634d68282f146100a9578063715018a6146100d25780638da5cb5b146100e9575b600080fd5b34801561008c57600080fd5b506100a760048036038101906100a2919061093b565b6101c4565b005b3480156100b557600080fd5b506100d060048036038101906100cb9190610997565b6102ab565b005b3480156100de57600080fd5b506100e7610416565b005b3480156100f557600080fd5b506100fe61042a565b60405161010b9190610a05565b60405180910390f35b34801561012057600080fd5b50610129610453565b6040516101369190610a2f565b60405180910390f35b61015960048036038101906101549190610997565b610459565b005b34801561016757600080fd5b50610182600480360381019061017d9190610a76565b61050d565b005b34801561019057600080fd5b506101ab60048036038101906101a69190610997565b610593565b6040516101bb9493929190610b3d565b60405180910390f35b6101cc610658565b60405180608001604052808381526020018281526020016000815260200160001515815250600260006001548152602001908152602001600020600082015181600001908161021b9190610d95565b50602082015181600101556040820151816002015560608201518160030160006101000a81548160ff0219169083151502179055509050506001547f8d374519a6e537515f9d4b6bfd64db42920f7a6476421e1908e5cbb3407293148383604051610287929190610e67565b60405180910390a2600160008154809291906102a290610ec6565b91905055505050565b6102b3610658565b6000600260008381526020019081526020016000209050806001015481600201541015610315576040517f08c379a000000000000000000000000000000000000000000000000000000000815260040161030c90610f5a565b60405180910390fd5b8060030160009054906101000a900460ff1615610367576040517f08c379a000000000000000000000000000000000000000000000000000000000815260040161035e90610fc6565b60405180910390fd5b60018160030160006101000a81548160ff02191690831515021790555061038c61042a565b73ffffffffffffffffffffffffffffffffffffffff166108fc82600201549081150290604051600060405180830381858888f193505050501580156103d5573d6000803e3d6000fd5b50817f80230996023d69b50793fa73f1919127c9d8e741d3989743c479169f22e7a288826002015460405161040a9190610a2f565b60405180910390a25050565b61041e610658565b61042860006106df565b565b60008060009054906101000a900473ffffffffffffffffffffffffffffffffffffffff16905090565b60015481565b600154811061049d576040517f08c379a000000000000000000000000000000000000000000000000000000000815260040161049490611032565b60405180910390fd5b6000600260008381526020019081526020016000209050348160020160008282546104c89190611052565b92505081905550817f0b5b4c52969ff7329ecf7ee536409fda87812b15a8622bc6e8cdeab3aee14a263334604051610501929190611086565b60405180910390a25050565b610515610658565b600073ffffffffffffffffffffffffffffffffffffffff168173ffffffffffffffffffffffffffffffffffffffff16036105875760006040517f1e4fbdf700000000000000000000000000000000000000000000000000000000815260040161057e9190610a05565b60405180910390fd5b610590816106df565b50565b60026020528060005260406000206000915090508060000180546105b690610bb8565b80601f01602080910402602001604051908101604052809291908181526020018280546105e290610bb8565b801561062f5780601f106106045761010080835404028352916020019161062f565b820191906000526020600020905b81548152906001019060200180831161061257829003601f168201915b5050505050908060010154908060020154908060030160009054906101000a900460ff16905084565b6106606107a3565b73ffffffffffffffffffffffffffffffffffffffff1661067e61042a565b73ffffffffffffffffffffffffffffffffffffffff16146106dd576106a16107a3565b6040517f118cdaa70000000000000000000000000000000000000000000000000000000081526004016106d49190610a05565b60405180910390fd5b565b60008060009054906101000a900473ffffffffffffffffffffffffffffffffffffffff169050816000806101000a81548173ffffffffffffffffffffffffffffffffffffffff021916908373ffffffffffffffffffffffffffffffffffffffff1602179055508173ffffffffffffffffffffffffffffffffffffffff168173ffffffffffffffffffffffffffffffffffffffff167f8be0079c531659141344cd1fd0a4f28419497f9722a3daafe3b4186f6b6457e060405160405180910390a35050565b600033905090565b6000604051905090565b600080fd5b600080fd5b600080fd5b600080fd5b6000601f19601f8301169050919050565b7f4e487b7100000000000000000000000000000000000000000000000000000000600052604160045260246000fd5b610812826107c9565b810181811067ffffffffffffffff82111715610831576108306107da565b5b80604052505050565b60006108446107ab565b90506108508282610809565b919050565b600067ffffffffffffffff8211156108705761086f6107da565b5b610879826107c9565b9050602081019050919050565b82818337600083830152505050565b60006108a86108a384610855565b61083a565b9050828152602081018484840111156108c4576108c36107c4565b5b6108cf848285610886565b509392505050565b600082601f8301126108ec576108eb6107bf565b5b81356108fc848260208601610895565b91505092915050565b6000819050919050565b61091881610905565b811461092357600080fd5b50565b6000813590506109358161090f565b92915050565b60008060408385031215610952576109516107b5565b5b600083013567ffffffffffffffff8111156109705761096f6107ba565b5b61097c858286016108d7565b925050602061098d85828601610926565b9150509250929050565b6000602082840312156109ad576109ac6107b5565b5b60006109bb84828501610926565b91505092915050565b600073ffffffffffffffffffffffffffffffffffffffff82169050919050565b60006109ef826109c4565b9050919050565b6109ff816109e4565b82525050565b6000602082019050610a1a60008301846109f6565b92915050565b610a2981610905565b82525050565b6000602082019050610a446000830184610a20565b92915050565b610a53816109e4565b8114610a5e57600080fd5b50565b600081359050610a7081610a4a565b92915050565b600060208284031215610a8c57610a8b6107b5565b5b6000610a9a84828501610a61565b91505092915050565b600081519050919050565b600082825260208201905092915050565b60005b83811015610add578082015181840152602081019050610ac2565b60008484015250505050565b6000610af482610aa3565b610afe8185610aae565b9350610b0e818560208601610abf565b610b17816107c9565b840191505092915050565b60008115159050919050565b610b3781610b22565b82525050565b60006080820190508181036000830152610b578187610ae9565b9050610b666020830186610a20565b610b736040830185610a20565b610b806060830184610b2e565b95945050505050565b7f4e487b7100000000000000000000000000000000000000000000000000000000600052602260045260246000fd5b60006002820490506001821680610bd057607f821691505b602082108103610be357610be2610b89565b5b50919050565b60008190508160005260206000209050919050565b60006020601f8301049050919050565b600082821b905092915050565b600060088302610c4b7fffffffffffffffffffffffffffffffffffffffffffffffffffffffffffffffff82610c0e565b610c558683610c0e565b95508019841693508086168417925050509392505050565b6000819050919050565b6000610c92610c8d610c8884610905565b610c6d565b610905565b9050919050565b6000819050919050565b610cac83610c77565b610cc0610cb882610c99565b848454610c1b565b825550505050565b600090565b610cd5610cc8565b610ce0818484610ca3565b505050565b5b81811015610d0457610cf9600082610ccd565b600181019050610ce6565b5050565b601f821115610d4957610d1a81610be9565b610d2384610bfe565b81016020851015610d32578190505b610d46610d3e85610bfe565b830182610ce5565b50505b505050565b600082821c905092915050565b6000610d6c60001984600802610d4e565b1980831691505092915050565b6000610d858383610d5b565b9150826002028217905092915050565b610d9e82610aa3565b67ffffffffffffffff811115610db757610db66107da565b5b610dc18254610bb8565b610dcc828285610d08565b600060209050601f831160018114610dff5760008415610ded578287015190505b610df78582610d79565b865550610e5f565b601f198416610e0d86610be9565b60005b82811015610e3557848901518255600182019150602085019450602081019050610e10565b86831015610e525784890151610e4e601f891682610d5b565b8355505b6001600288020188555050505b505050505050565b60006040820190508181036000830152610e818185610ae9565b9050610e906020830184610a20565b9392505050565b7f4e487b7100000000000000000000000000000000000000000000000000000000600052601160045260246000fd5b6000610ed182610905565b91507fffffffffffffffffffffffffffffffffffffffffffffffffffffffffffffffff8203610f0357610f02610e97565b5b600182019050919050565b7f476f616c206e6f74206d65740000000000000000000000000000000000000000600082015250565b6000610f44600c83610aae565b9150610f4f82610f0e565b602082019050919050565b60006020820190508181036000830152610f7381610f37565b9050919050565b7f46756e647320616c72656164792072656c656173656400000000000000000000600082015250565b6000610fb0601683610aae565b9150610fbb82610f7a565b602082019050919050565b60006020820190508181036000830152610fdf81610fa3565b9050919050565b7f496e76616c696420636861726974792049440000000000000000000000000000600082015250565b600061101c601283610aae565b915061102782610fe6565b602082019050919050565b6000602082019050818103600083015261104b8161100f565b9050919050565b600061105d82610905565b915061106883610905565b92508282019050808211156110805761107f610e97565b5b92915050565b600060408201905061109b60008301856109f6565b6110a86020830184610a20565b939250505056fea264697066735822122093078383dda751c0ece7b0054f0c08a1e86b9ec6701268eee664b6c39ce5ce6e64736f6c63430008140033",
  "linkReferences": {},
  "deployedLinkReferences": {}
}