{
  "_format": "hh-sol-artifact-1",
  "contractName": "CharityManager",
  "sourceName": "contracts/CharityManager.sol",
  "abi": [
    {
      "inputs": [],
      "stateMutability": "nonpayable",
      "type": "constructor"
    },
    {
      "inputs": [
        {
          "internalType": "address",
          "name": "owner",
          "type": "address"
        }
      ],
      "name": "OwnableInvalidOwner",
      "type": "error"
    },
    {
      "inputs": [
        {
          "internalType": "address",
          "name": "account",
          "type": "address"
        }
      ],
      "name": "OwnableUnauthorizedAccount",
      "type": "error"
    },
    {
      "anonymous": false,
      "inputs": [
        {
          "indexed": true,
          "internalType": "uint256",
          "name": "charityId",
          "type": "uint256"
        },
        {
          "indexed": false,
          "internalType": "string",
          "name": "name",
          "type": "string"
        },
        {
          "indexed": false,
          "internalType": "uint256",
          "name": "goal",
          "type": "uint256"
        },
        {
          "indexed": false,
          "internalType": "uint256",
          "name": "deadline",
          "type": "uint256"
        }
      ],
      "name": "CharityCreated",
      "type": "event"
    },
    {
      "anonymous": false,
      "inputs": [
        {
          "indexed": true,
          "internalType": "uint256",
          "name": "charityId",
          "type": "uint256"
        },
        {
          "indexed": false,
          "internalType": "address",
          "name": "donor",
          "type": "address"
        },
        {
          "indexed": false,
          "internalType": "uint256",
          "name": "amount",
          "type": "uint256"
        },
        {
          "indexed": false,
          "internalType": "uint256",
          "name": "timestamp",
          "type": "uint256"
        }
      ],
      "name": "DonationReceived",
      "type": "event"
    },
    {
      "anonymous": false,
      "inputs": [
        {
          "indexed": true,
          "internalType": "uint256",
          "name": "charityId",
          "type": "uint256"
        },
        {
          "indexed": false,
          "internalType": "uint256",
          "name": "amount",
          "type": "uint256"
        }
      ],
      "name": "FundsReleased",
      "type": "event"
    },
    {
      "anonymous": false,
      "inputs": [
        {
          "indexed": true,
          "internalType": "address",
          "name": "previousOwner",
          "type": "address"
        },
        {
          "indexed": true,
          "internalType": "address",
          "name": "newOwner",
          "type": "address"
        }
      ],
      "name": "OwnershipTransferred",
      "type": "event"
    },
    {
      "anonymous": false,
      "inputs": [
        {
          "indexed": true,
          "internalType": "uint256",
          "name": "charityId",
          "type": "uint256"
        },
        {
          "indexed": false,
          "internalType": "address",
          "name": "donor",
          "type": "address"
        },
        {
          "indexed": false,
          "internalType": "uint256",
          "name": "amount",
          "type": "uint256"
        }
      ],
      "name": "RefundClaimed",
      "type": "event"
    },
    {
      "inputs": [
        {
          "internalType": "uint256",
          "name": "",
          "type": "uint256"
        }
      ],
      "name": "charities",
      "outputs": [
        {
          "internalType": "string",
          "name": "name",
          "type": "string"
        },
        {
          "internalType": "uint256",
          "name": "goal",
          "type": "uint256"
        },
        {
          "internalType": "uint256",
          "name": "fundsRaised",
          "type": "uint256"
        },
        {
          "internalType": "uint256",
          "name": "deadline",
          "type": "uint256"
        },
        {
          "internalType": "bool",
          "name": "fundsReleased",
          "type": "bool"
        }
      ],
      "stateMutability": "view",
      "type": "function"
    },
    {
      "inputs": [],
      "name": "charityCount",
      "outputs": [
        {
          "internalType": "uint256",
          "name": "",
          "type": "uint256"
        }
      ],
      "stateMutability": "view",
      "type": "function"
    },
    {
      "inputs": [
        {
          "internalType": "uint256",
          "name": "_charityId",
          "type": "uint256"
        }
      ],
      "name": "claimRefund",
      "outputs": [],
      "stateMutability": "nonpayable",
      "type": "function"
    },
    {
      "inputs": [
        {
          "internalType": "string",
          "name": "_name",
          "type": "string"
        },
        {
          "internalType": "uint256",
          "name": "_goal",
          "type": "uint256"
        },
        {
          "internalType": "uint256",
          "name": "_durationDays",
          "type": "uint256"
        }
      ],
      "name": "createCharity",
      "outputs": [],
      "stateMutability": "nonpayable",
      "type": "function"
    },
    {
      "inputs": [
        {
          "internalType": "uint256",
          "name": "_charityId",
          "type": "uint256"
        }
      ],
      "name": "donate",
      "outputs": [],
      "stateMutability": "payable",
      "type": "function"
    },
    {
      "inputs": [
        {
          "internalType": "uint256",
          "name": "",
          "type": "uint256"
        },
        {
          "internalType": "uint256",
          "name": "",
          "type": "uint256"
        }
      ],
      "name": "donationsByCharity",
      "outputs": [
        {
          "internalType": "address",
          "name": "donor",
          "type": "address"
        },
        {
          "internalType": "uint256",
          "name": "amount",
          "type": "uint256"
        },
        {
          "internalType": "uint256",
          "name": "timestamp",
          "type": "uint256"
        }
      ],
      "stateMutability": "view",
      "type": "function"
    },
    {
      "inputs": [
        {
          "internalType": "uint256",
          "name": "_charityId",
          "type": "uint256"
        }
      ],
      "name": "getDonations",
      "outputs": [
        {
          "components": [
            {
              "internalType": "address",
              "name": "donor",
              "type": "address"
            },
            {
              "internalType": "uint256",
              "name": "amount",
              "type": "uint256"
            },
            {
              "internalType": "uint256",
              "name": "timestamp",
              "type": "uint256"
            }
          ],
          "internalType": "struct CharityManager.Donation[]",
          "name": "",
          "type": "tuple[]"
        }
      ],
      "stateMutability": "view",
      "type": "function"
    },
    {
      "inputs": [],
      "name": "owner",
      "outputs": [
        {
          "internalType": "address",
          "name": "",
          "type": "address"
        }
      ],
      "stateMutability": "view",
      "type": "function"
    },
    {
      "inputs": [
        {
          "internalType": "uint256",
          "name": "_charityId",
          "type": "uint256"
        }
      ],
      "name": "releaseFunds",
      "outputs": [],
      "stateMutability": "nonpayable",
      "type": "function"
    },
    {
      "inputs": [],
      "name": "renounceOwnership",
      "outputs": [],
      "stateMutability": "nonpayable",
      "type": "function"
    },
    {
      "inputs": [
        {
          "internalType": "address",
          "name": "newOwner",
          "type": "address"
        }
      ],
      "name": "transferOwnership",
      "outputs": [],
      "stateMutability": "nonpayable",
      "type": "function"
    }
  ],
  "bytecode": "0x60806040523480156200001157600080fd5b5033600073ffffffffffffffffffffffffffffffffffffffff168173ffffffffffffffffffffffffffffffffffffffff1603620000885760006040517f1e4fbdf70000000000000000000000000000000000000000000000000000000081526004016200007f9190620001a9565b60405180910390fd5b6200009981620000a060201b60201c565b50620001c6565b60008060009054906101000a900473ffffffffffffffffffffffffffffffffffffffff169050816000806101000a81548173ffffffffffffffffffffffffffffffffffffffff021916908373ffffffffffffffffffffffffffffffffffffffff1602179055508173ffffffffffffffffffffffffffffffffffffffff168173ffffffffffffffffffffffffffffffffffffffff167f8be0079c531659141344cd1fd0a4f28419497f9722a3daafe3b4186f6b6457e060405160405180910390a35050565b600073ffffffffffffffffffffffffffffffffffffffff82169050919050565b6000620001918262000164565b9050919050565b620001a38162000184565b82525050565b6000602082019050620001c0600083018462000198565b92915050565b611b7b80620001d66000396000f3fe60806040526004361061009c5760003560e01c806391329493116100645780639132949314610172578063b74eca1e1461019d578063d50cfacb146101c6578063f14faf6f14610205578063f2fde38b14610221578063fb709d2e1461024a5761009c565b80634d68282f146100a1578063596d9ce2146100ca5780635b7baf6414610107578063715018a6146101305780638da5cb5b14610147575b600080fd5b3480156100ad57600080fd5b506100c860048036038101906100c39190610e93565b61028b565b005b3480156100d657600080fd5b506100f160048036038101906100ec9190610e93565b61043d565b6040516100fe9190611001565b60405180910390f35b34801561011357600080fd5b5061012e60048036038101906101299190610e93565b610519565b005b34801561013c57600080fd5b5061014561081c565b005b34801561015357600080fd5b5061015c610830565b6040516101699190611032565b60405180910390f35b34801561017e57600080fd5b50610187610859565b604051610194919061105c565b60405180910390f35b3480156101a957600080fd5b506101c460048036038101906101bf91906111bd565b61085f565b005b3480156101d257600080fd5b506101ed60048036038101906101e8919061122c565b610978565b6040516101fc9392919061126c565b60405180910390f35b61021f600480360381019061021a9190610e93565b6109df565b005b34801561022d57600080fd5b50610248600480360381019061024391906112cf565b610ba5565b005b34801561025657600080fd5b50610271600480360381019061026c9190610e93565b610c2b565b604051610282959493929190611396565b60405180910390f35b610293610cf6565b600060026000838152602001908152602001600020905080600301544210156102f1576040517f08c379a00000000000000000000000000000000000000000000000000000000081526004016102e89061143c565b60405180910390fd5b80600101548160020154101561033c576040517f08c379a0000000000000000000000000000000000000000000000000000000008152600401610333906114a8565b60405180910390fd5b8060040160009054906101000a900460ff161561038e576040517f08c379a000000000000000000000000000000000000000000000000000000000815260040161038590611514565b60405180910390fd5b60018160040160006101000a81548160ff0219169083151502179055506103b3610830565b73ffffffffffffffffffffffffffffffffffffffff166108fc82600201549081150290604051600060405180830381858888f193505050501580156103fc573d6000803e3d6000fd5b50817f80230996023d69b50793fa73f1919127c9d8e741d3989743c479169f22e7a2888260020154604051610431919061105c565b60405180910390a25050565b606060036000838152602001908152602001600020805480602002602001604051908101604052809291908181526020016000905b8282101561050e57838290600052602060002090600302016040518060600160405290816000820160009054906101000a900473ffffffffffffffffffffffffffffffffffffffff1673ffffffffffffffffffffffffffffffffffffffff1673ffffffffffffffffffffffffffffffffffffffff1681526020016001820154815260200160028201548152505081526020019060010190610472565b505050509050919050565b60006002600083815260200190815260200160002090508060030154421015610577576040517f08c379a000000000000000000000000000000000000000000000000000000000815260040161056e9061143c565b60405180910390fd5b80600101548160020154106105c1576040517f08c379a00000000000000000000000000000000000000000000000000000000081526004016105b890611580565b60405180910390fd5b8060040160009054906101000a900460ff1615610613576040517f08c379a000000000000000000000000000000000000000000000000000000000815260040161060a90611514565b60405180910390fd5b6000805b6003600085815260200190815260200160002080549050811015610752573373ffffffffffffffffffffffffffffffffffffffff16600360008681526020019081526020016000208281548110610671576106706115a0565b5b906000526020600020906003020160000160009054906101000a900473ffffffffffffffffffffffffffffffffffffffff1673ffffffffffffffffffffffffffffffffffffffff160361073f576003600085815260200190815260200160002081815481106106e3576106e26115a0565b5b9060005260206000209060030201600101548261070091906115fe565b91506000600360008681526020019081526020016000208281548110610729576107286115a0565b5b9060005260206000209060030201600101819055505b808061074a90611632565b915050610617565b5060008111610796576040517f08c379a000000000000000000000000000000000000000000000000000000000815260040161078d906116c6565b60405180910390fd5b3373ffffffffffffffffffffffffffffffffffffffff166108fc829081150290604051600060405180830381858888f193505050501580156107dc573d6000803e3d6000fd5b50827ff3f402280ef0a7905e124aa621b65eaeb2725c343e8b36d398ed78c29daf285c338360405161080f9291906116e6565b60405180910390a2505050565b610824610cf6565b61082e6000610d7d565b565b60008060009054906101000a900473ffffffffffffffffffffffffffffffffffffffff16905090565b60015481565b610867610cf6565b60006201518082610878919061170f565b4261088391906115fe565b90506040518060a00160405280858152602001848152602001600081526020018281526020016000151581525060026000600154815260200190815260200160002060008201518160000190816108da919061195d565b5060208201518160010155604082015181600201556060820151816003015560808201518160040160006101000a81548160ff0219169083151502179055509050506001547ff6cabe83de7707f1dc9e2583f7c6e17ac7a95274d30ff3b92ae22dab2073490d85858460405161095293929190611a2f565b60405180910390a26001600081548092919061096d90611632565b919050555050505050565b6003602052816000526040600020818154811061099457600080fd5b9060005260206000209060030201600091509150508060000160009054906101000a900473ffffffffffffffffffffffffffffffffffffffff16908060010154908060020154905083565b6001548110610a23576040517f08c379a0000000000000000000000000000000000000000000000000000000008152600401610a1a90611ab9565b60405180910390fd5b600060026000838152602001908152602001600020905080600301544210610a80576040517f08c379a0000000000000000000000000000000000000000000000000000000008152600401610a7790611b25565b60405180910390fd5b34816002016000828254610a9491906115fe565b925050819055506003600083815260200190815260200160002060405180606001604052803373ffffffffffffffffffffffffffffffffffffffff16815260200134815260200142815250908060018154018082558091505060019003906000526020600020906003020160009091909190915060008201518160000160006101000a81548173ffffffffffffffffffffffffffffffffffffffff021916908373ffffffffffffffffffffffffffffffffffffffff16021790555060208201518160010155604082015181600201555050817f3dbea1b4ce5f95137fdcac9b1d685825c3d70ace830df1ca5a181d3887add410333442604051610b999392919061126c565b60405180910390a25050565b610bad610cf6565b600073ffffffffffffffffffffffffffffffffffffffff168173ffffffffffffffffffffffffffffffffffffffff1603610c1f5760006040517f1e4fbdf7000000000000000000000000000000000000000000000000000000008152600401610c169190611032565b60405180910390fd5b610c2881610d7d565b50565b6002602052806000526040600020600091509050806000018054610c4e90611780565b80601f0160208091040260200160405190810160405280929190818152602001828054610c7a90611780565b8015610cc75780601f10610c9c57610100808354040283529160200191610cc7565b820191906000526020600020905b815481529060010190602001808311610caa57829003601f168201915b5050505050908060010154908060020154908060030154908060040160009054906101000a900460ff16905085565b610cfe610e41565b73ffffffffffffffffffffffffffffffffffffffff16610d1c610830565b73ffffffffffffffffffffffffffffffffffffffff1614610d7b57610d3f610e41565b6040517f118cdaa7000000000000000000000000000000000000000000000000000000008152600401610d729190611032565b60405180910390fd5b565b60008060009054906101000a900473ffffffffffffffffffffffffffffffffffffffff169050816000806101000a81548173ffffffffffffffffffffffffffffffffffffffff021916908373ffffffffffffffffffffffffffffffffffffffff1602179055508173ffffffffffffffffffffffffffffffffffffffff168173ffffffffffffffffffffffffffffffffffffffff167f8be0079c531659141344cd1fd0a4f28419497f9722a3daafe3b4186f6b6457e060405160405180910390a35050565b600033905090565b6000604051905090565b600080fd5b600080fd5b6000819050919050565b610e7081610e5d565b8114610e7b57600080fd5b50565b600081359050610e8d81610e67565b92915050565b600060208284031215610ea957610ea8610e53565b5b6000610eb784828501610e7e565b91505092915050565b600081519050919050565b600082825260208201905092915050565b6000819050602082019050919050565b600073ffffffffffffffffffffffffffffffffffffffff82169050919050565b6000610f1782610eec565b9050919050565b610f2781610f0c565b82525050565b610f3681610e5d565b82525050565b606082016000820151610f526000850182610f1e565b506020820151610f656020850182610f2d565b506040820151610f786040850182610f2d565b50505050565b6000610f8a8383610f3c565b60608301905092915050565b6000602082019050919050565b6000610fae82610ec0565b610fb88185610ecb565b9350610fc383610edc565b8060005b83811015610ff4578151610fdb8882610f7e565b9750610fe683610f96565b925050600181019050610fc7565b5085935050505092915050565b6000602082019050818103600083015261101b8184610fa3565b905092915050565b61102c81610f0c565b82525050565b60006020820190506110476000830184611023565b92915050565b61105681610e5d565b82525050565b6000602082019050611071600083018461104d565b92915050565b600080fd5b600080fd5b6000601f19601f8301169050919050565b7f4e487b7100000000000000000000000000000000000000000000000000000000600052604160045260246000fd5b6110ca82611081565b810181811067ffffffffffffffff821117156110e9576110e8611092565b5b80604052505050565b60006110fc610e49565b905061110882826110c1565b919050565b600067ffffffffffffffff82111561112857611127611092565b5b61113182611081565b9050602081019050919050565b82818337600083830152505050565b600061116061115b8461110d565b6110f2565b90508281526020810184848401111561117c5761117b61107c565b5b61118784828561113e565b509392505050565b600082601f8301126111a4576111a3611077565b5b81356111b484826020860161114d565b91505092915050565b6000806000606084860312156111d6576111d5610e53565b5b600084013567ffffffffffffffff8111156111f4576111f3610e58565b5b6112008682870161118f565b935050602061121186828701610e7e565b925050604061122286828701610e7e565b9150509250925092565b6000806040838503121561124357611242610e53565b5b600061125185828601610e7e565b925050602061126285828601610e7e565b9150509250929050565b60006060820190506112816000830186611023565b61128e602083018561104d565b61129b604083018461104d565b949350505050565b6112ac81610f0c565b81146112b757600080fd5b50565b6000813590506112c9816112a3565b92915050565b6000602082840312156112e5576112e4610e53565b5b60006112f3848285016112ba565b91505092915050565b600081519050919050565b600082825260208201905092915050565b60005b8381101561133657808201518184015260208101905061131b565b60008484015250505050565b600061134d826112fc565b6113578185611307565b9350611367818560208601611318565b61137081611081565b840191505092915050565b60008115159050919050565b6113908161137b565b82525050565b600060a08201905081810360008301526113b08188611342565b90506113bf602083018761104d565b6113cc604083018661104d565b6113d9606083018561104d565b6113e66080830184611387565b9695505050505050565b7f446561646c696e65206e6f742072656163686564000000000000000000000000600082015250565b6000611426601483611307565b9150611431826113f0565b602082019050919050565b6000602082019050818103600083015261145581611419565b9050919050565b7f476f616c206e6f74206d65740000000000000000000000000000000000000000600082015250565b6000611492600c83611307565b915061149d8261145c565b602082019050919050565b600060208201905081810360008301526114c181611485565b9050919050565b7f46756e647320616c72656164792072656c656173656400000000000000000000600082015250565b60006114fe601683611307565b9150611509826114c8565b602082019050919050565b6000602082019050818103600083015261152d816114f1565b9050919050565b7f476f616c20776173206d65740000000000000000000000000000000000000000600082015250565b600061156a600c83611307565b915061157582611534565b602082019050919050565b600060208201905081810360008301526115998161155d565b9050919050565b7f4e487b7100000000000000000000000000000000000000000000000000000000600052603260045260246000fd5b7f4e487b7100000000000000000000000000000000000000000000000000000000600052601160045260246000fd5b600061160982610e5d565b915061161483610e5d565b925082820190508082111561162c5761162b6115cf565b5b92915050565b600061163d82610e5d565b91507fffffffffffffffffffffffffffffffffffffffffffffffffffffffffffffffff820361166f5761166e6115cf565b5b600182019050919050565b7f4e6f20646f6e6174696f6e7320746f20726566756e6400000000000000000000600082015250565b60006116b0601683611307565b91506116bb8261167a565b602082019050919050565b600060208201905081810360008301526116df816116a3565b9050919050565b60006040820190506116fb6000830185611023565b611708602083018461104d565b9392505050565b600061171a82610e5d565b915061172583610e5d565b925082820261173381610e5d565b9150828204841483151761174a576117496115cf565b5b5092915050565b7f4e487b7100000000000000000000000000000000000000000000000000000000600052602260045260246000fd5b6000600282049050600182168061179857607f821691505b6020821081036117ab576117aa611751565b5b50919050565b60008190508160005260206000209050919050565b60006020601f8301049050919050565b600082821b905092915050565b6000600883026118137fffffffffffffffffffffffffffffffffffffffffffffffffffffffffffffffff826117d6565b61181d86836117d6565b95508019841693508086168417925050509392505050565b6000819050919050565b600061185a61185561185084610e5d565b611835565b610e5d565b9050919050565b6000819050919050565b6118748361183f565b61188861188082611861565b8484546117e3565b825550505050565b600090565b61189d611890565b6118a881848461186b565b505050565b5b818110156118cc576118c1600082611895565b6001810190506118ae565b5050565b601f821115611911576118e2816117b1565b6118eb846117c6565b810160208510156118fa578190505b61190e611906856117c6565b8301826118ad565b50505b505050565b600082821c905092915050565b600061193460001984600802611916565b1980831691505092915050565b600061194d8383611923565b9150826002028217905092915050565b611966826112fc565b67ffffffffffffffff81111561197f5761197e611092565b5b6119898254611780565b6119948282856118d0565b600060209050601f8311600181146119c757600084156119b5578287015190505b6119bf8582611941565b865550611a27565b601f1984166119d5866117b1565b60005b828110156119fd578489015182556001820191506020850194506020810190506119d8565b86831015611a1a5784890151611a16601f891682611923565b8355505b6001600288020188555050505b505050505050565b60006060820190508181036000830152611a498186611342565b9050611a58602083018561104d565b611a65604083018461104d565b949350505050565b7f496e76616c696420636861726974792049440000000000000000000000000000600082015250565b6000611aa3601283611307565b9150611aae82611a6d565b602082019050919050565b60006020820190508181036000830152611ad281611a96565b9050919050565b7f446f6e6174696f6e20706572696f6420656e6465640000000000000000000000600082015250565b6000611b0f601583611307565b9150611b1a82611ad9565b602082019050919050565b60006020820190508181036000830152611b3e81611b02565b905091905056fea26469706673582212201f889d6af94fcc44ab3a3f466141a86c5003e64e75bed4d9fb0fbe28a7bf198564736f6c63430008140033",
  "linkReferences": {},
  "deployedLinkReferences": {}
}